:020000040000FA
:0400000007EF00F016
:10000800308209ED00F012EF01F00600D9CF2EF092
:10001800DACF2FF0F2A413EF00F015EF00F06DEF38
:1000280000F0F2940B0ED76EDC0ED66E010E25246E
:10003800D96E000E2620DA6E440EDF6E254A262A77
:10004800010E2524D96E000E2620DA6E530EDF6EBF
:10005800254A262A010E2524D96E000E2620DA6E9E
:10006800540EDF6E254A262A010E2524D96E000E6D
:100078002620DA6E300EDF6E254A262A010E252448
:10008800D96E000E2620DA6E300EDF6E254A262A3B
:10009800010E2524D96E000E2620DA6E300EDF6E92
:1000A800254A262A010E2524D96E000E2620DA6E4E
:1000B800300EDF6E254A262A010E2524D96E000E41
:1000C8002620DA6E230EDF6E254A262AAC8A240EF5
:1000D800AD6E9EA872EF00F074EF00F076EF00F0BE
:1000E800CFEC00F09EAA7BEF00F07DEF00F080EFF0
:1000F80000F09E9A8FEC00F0ABA285EF00F087EF3E
:1001080000F089EF00F0AB98AB882FC0DAFF2EC063
:10011800D9FF30921100AECF2DF0240E2D18D8A49F
:1001280098EF00F09AEF00F0A4EF00F0000E2A6EAE
:10013800000E296E000E286E010E276ECEEF00F01D
:1001480027502810D8A4ABEF00F0ADEF00F0AFEFC8
:1001580000F0CEEF00F0230E2D18D8A4B6EF00F073
:10016800B8EF00F0C4EF00F0000E2A6E000E296E02
:10017800000E286E000E276EF9EC00F0CEEF00F0AE
:10018800110E2924D96E000E2A20DA6E2DC0DFFF49
:10019800294A2A2A12009E982550231807E126503A
:1001A8002418D8A4DAEF00F0DCEF00F0EEEF00F04E
:1001B800ACA2E1EF00F0E3EF00F0DCEF00F0AC9A66
:1001C800000E266E000E256E000E246E000E236EA5
:1001D800F8EF00F0010E2324D96E000E2420DA6E09
:1001E800DF50AD6E234A242A120000EF01F0D58EAD
:1001F800F28A9D8811EF01F011502B6E2C6A2C5059
:10020800000AD8B40AEF01F011EF01F02B50470AA9
:10021800D8B4FBEF00F011EF01F0120000EE01F08E
:100228002A0EEE6AE806FDE13090309200011DEFDB
:1002380001F03AEC01F031EC01F027EC01F023EF8A
:1002480001F007EF00F0000EF16E000EF26E9D8ACD
:10025800000E9E6EF28CF28E1200948E949C150EF7
:10026800AF6E040EAC6E900EAB6E1200040ED56E1F
:0A0278000B0ED76EDC0ED66E1200DE
:020000040020DA
:08000000FFFFFFFFFFFFFFFF00
:020000040030CA
:0E000000FF06191EF38301FFFFC0FFE0FF4063
:00000001FF
