:020000040000FA
:0400000013EF00F00A
:0600080037827CED03F0DD
:100018003780E0CF27F027C0E0FF37901000AAEF25
:1000280003F0B5EC04F014EF02F0000E22EC02F03D
:10003800346E010E1C6E34507CEC02F0B7EC04F008
:10004800B3EC04F0FBEF01F0240E3418D8A42FEF22
:1000580000F031EF00F015EF00F0010E196E15EF0A
:1000680000F0010E1724D96EDA6A000EDA2234C0C5
:10007800DFFF172A030E1718D8A445EF00F047EF43
:1000880000F015EF00F0470E0118D8A44EEF00F06D
:1000980050EF00F068EF00F04F0E0218D8A457EFA9
:1000A80000F059EF00F068EF00F04F0E0318D8A4E5
:1000B80060EF00F062EF00F068EF00F0000E186EDD
:1000C800040E166E11EF01F0450E0118D8A46FEF5B
:1000D80000F071EF00F089EF00F04E0E0218D8A47E
:1000E80078EF00F07AEF00F089EF00F0440E031883
:1000F800D8A481EF00F083EF00F089EF00F0010E43
:10010800186E000E166E11EF01F0530E0118D8A4E8
:1001180090EF00F092EF00F0AAEF00F0500E0218F6
:10012800D8A499EF00F09BEF00F0AAEF00F0440E7E
:100138000318D8A4A2EF00F0A4EF00F0AAEF00F093
:10014800020E186E040E166E11EF01F0410E011822
:10015800D8A4B1EF00F0B3EF00F0CBEF00F04C0EF5
:100168000218D8A4BAEF00F0BCEF00F0CBEF00F013
:10017800540E0318D8A4C3EF00F0C5EF00F0CBEF7E
:1001880000F0030E186E040E166E11EF01F04D0EFE
:100198000118D8A4D2EF00F0D4EF00F0ECEF00F093
:1001A800410E0218D8A4DBEF00F0DDEF00F0ECEF11
:1001B80000F04E0E0318D8A4E4EF00F0E6EF00F0CC
:1001C800ECEF00F0040E186E020E166E11EF01F03F
:1001D8004C0E0118D8A4F3EF00F0F5EF00F00DEF86
:1001E80001F0450E0218D8A4FCEF00F0FEEF00F075
:1001F8000DEF01F0440E0318D8A405EF01F007EF46
:1002080001F00DEF01F0050E186E020E166E11EFDB
:1002180001F0000E196E15EF00F0020E196E000EB7
:10022800176E000E156E15EF00F0010E326E2F0ED0
:10023800346421EF01F023EF01F02BEF01F0390EC8
:10024800346429EF01F02BEF01F04DEF01F0400E7F
:10025800346431EF01F033EF01F03BEF01F0460E6B
:10026800346439EF01F03BEF01F04DEF01F0600E1F
:10027800346441EF01F043EF01F04BEF01F0660EFB
:10028800346449EF01F04BEF01F04DEF01F0000E3F
:10029800326E3250D8A453EF01F056EF01F0010E40
:1002A80057EF01F0000E336E230E3418D8B45FEF09
:1002B80001F062EF01F0010E63EF01F0000E316E04
:1002C8003350D8A46AEF01F06CEF01F076EF01F03B
:1002D8003150D8A472EF01F074EF01F076EF01F01D
:1002E8000DEF01F03350D8B47CEF01F07EEF01F050
:1002F8009BEF01F016501518D8A485EF01F087EF91
:1003080001F089EF01F00DEF01F0083A093AF00E1B
:10031800091608500F0B0912F00E0816345008EC95
:1003280003F02F6E2F500812152A15EF00F0165003
:100338001518D8A4A2EF01F0A4EF01F0F1EF01F035
:10034800CCEF01F008C02DF009C02EF087EC04F0C6
:10035800F1EF01F0A8EC04F0F1EF01F008C028F08B
:1003680009C029F0A3EC04F0F1EF01F008C028F06F
:1003780009C029F0B0EC04F0F1EF01F008505CEC92
:1003880004F0F1EF01F0085045EC03F0F1EF01F053
:1003980018502F6E306A3050000AD8B4D6EF01F0EA
:1003A800F1EF01F02F50000AD8B4A6EF01F0010ACE
:1003B800D8B4AEEF01F0030AD8B4B2EF01F0010AE5
:1003C800D8B4BAEF01F0070AD8B4C2EF01F0010AB5
:1003D800D8B4C7EF01F0F1EF01F0000E156E000E72
:1003E800196E000E096E000E086E15EF00F0195018
:1003F8002F6E306A3050000AD8B405EF02F015EFBE
:1004080000F02F50000AD8B428EF00F0010AD8B441
:1004180035EF00F0030AD8B419EF01F015EF00F03A
:10042800000E0DEC04F00009D8B41DEF02F01FEF28
:1004380002F019EF00F0B7EC04F01200226E22501F
:100448000DEC04F00009D8B42CEF02F02EEF02F006
:1004580031EF02F0FF0E7BEF02F02250D8A437EF05
:1004680002F039EF02F04CEF02F0040E2224D96EAC
:10047800DA6A000EDA22DF501F6E206A000E1F248F
:10048800D96E010E2020DA6EDF50216E5DEF02F08A
:10049800040E2224D96EDA6A000EDA22DF501F6EAB
:1004A800206A000E1F24D96E020E2020DA6EDF505B
:1004B800216E040E2224D96EDA6A000EDA22DF2AAF
:1004C800040E2224D96EDA6A000EDA22DE28D8A4B5
:1004D80070EF02F072EF02F07AEF02F0040E2224BD
:1004E800D96EDA6A000EDA22000EDF6E2150120091
:1004F8001F6E1C50D8A483EF02F085EF02F098EF2E
:1005080002F0060E1C24D96EDA6A000EDA22DF50D9
:100518001D6E1E6A000E1D24D96E010E1E20DA6E95
:100528001FC0DFFFA9EF02F0060E1C24D96EDA6A9D
:10053800000EDA22DF501D6E1E6A000E1D24D96ED1
:10054800020E1E20DA6E1FC0DFFF060E1C24D96EB5
:10055800DA6A000EDA22DF2A060E1C24D96EDA6A5D
:10056800000EDA22DE28D8A4BCEF02F0BEEF02F0BB
:10057800C6EF02F0060E1C24D96EDA6A000EDA22E3
:10058800000EDF6E12002B6E2B500F0B296E2B3ACC
:100598000F0E2B162B500F0B2A6EB5EC04F0010E24
:1005A8001C6E240E7CEC02F0010E1C6E500E7CECCE
:1005B80002F0010E1C6E520E7CEC02F0010E1C6E55
:1005C800530E7CEC02F02A504CEC04F02C6E010E19
:1005D8001C6E2C507CEC02F029504CEC04F02C6E74
:1005E800010E1C6E2C507CEC02F0010E1C6E230ECA
:1005F8007CEC02F0010E1C6E230E7CEC02F0B7ECD2
:1006080004F0B3EC04F01200286E2F0E28640FEFEC
:1006180003F011EF03F01DEF03F03A0E286017EF17
:1006280003F019EF03F01DEF03F02850D00F44EF4B
:1006380003F0400E286423EF03F025EF03F031EFB9
:1006480003F0470E28602BEF03F02DEF03F031EF96
:1006580003F02850C90F44EF03F0400E286437EF29
:1006680003F039EF03F043EF03F0470E28603FEF44
:1006780003F041EF03F043EF03F02DEF03F0FF0E1B
:1006880012002A6E5AEF03F089908A908B908C9012
:100698007BEF03F08C807BEF03F08B807BEF03F024
:1006A8008A807BEF03F089807BEF03F02A50286E65
:1006B800296A2950000AD8B464EF03F07BEF03F0ED
:1006C8002850000AD8B448EF03F0010AD8B44EEF16
:1006D80003F0030AD8B451EF03F0010AD8B454EF79
:1006E80003F0070AD8B457EF03F07BEF03F01200CA
:1006F8000600E1CF23F0E2CF24F0D9CF25F0DACFFE
:1007080026F09EAA8AEF03F08CEF03F08EEF03F039
:1007180074EC04F09EA893EF03F095EF03F097EFC5
:1007280003F026EC04F0F2A49CEF03F09EEF03F034
:10073800A0EF03F09DEC04F026C0DAFF25C0D9FF36
:1007480024C0E2FF23C0E1FF3792110002EE00F05F
:1007580010EEFFF0EE6AE550E150FCE1E250FAE1FC
:1007680001EE00F010EEFFF0EE6AE550E150FCE11A
:10077800E250FAE100EE60F0800EEE6AE806FDE174
:1007880000EE01F01B0EEE6AE806FDE137903792A5
:100798000001CFEF03F0EEEC03F07EEC04F096ECF2
:1007A80004F069EC04F08FEC04F0ADEC04F015EC07
:1007B80000F03AEC04F0FE0E366EA70E356E660EAB
:1007C800E82EFED7352EFCD7362EFAD7DBEF03F00E
:1007D80013EF00F0FE0E926EFE0E936EFE0E946EF8
:1007E800FE0E956E100E996E000E806E000E816ED4
:1007F800000E826E000E836E000E876E000E896EEC
:10080800000E8A6E000E8B6E000E8C6E000E906EBF
:1008180012001E6E040E1E24D96EDA6A000EDA2249
:10082800060E1E24E16EE26A000EE222DE50E61891
:10083800D8B421EF04F024EF04F0010E25EF04F002
:10084800000E12009E98010E0DEC04F00009D8B4B9
:1008580030EF04F032EF04F035EF04F0AC9A39EFE2
:1008680004F0010E22EC02F0AD6E1200C282C2B298
:1008780040EF04F042EF04F03BEF04F0C450296E5F
:10088800286AC35028240C6E000E29200D6E120011
:10089800286E0A0E286053EF04F055EF04F059EF64
:1008A80004F02850300F5BEF04F02850370F120087
:1008B800286E2850D8A463EF04F066EF04F0010E08
:1008C80067EF04F0000E1A6E1200310EC26E000EB1
:1008D800C16EAA0EC06E000EC46E000EC36E12006A
:1008E800AB92AB94AB88000E1C6EAE507CEC02F061
:1008F8009E9A1200AC987E96AC84AF68AB8E9D88A9
:100908009D8AAB8812002DC00EF02EC00FF0150E78
:10091800C7EC02F01200030ED56E000ED76E000E63
:10092800D66E1200F28C9D8A9D88F28AB7EC04F08C
:100938001200F294000ED76E000ED66E120028C078
:100948000AF029C00BF01200000E0F6E000E0E6E9A
:100958001200D58EF28E120028C01BF01200AC8A4D
:0A0968001200F29E1200F28E12003F
:020000040030CA
:0E000000FF06191EF38301FFFFC0FFE0FF4063
:00000001FF
