:020000040000FA
:0400000013EF00F00A
:060008004582F8ED0BF04B
:100018004580E0CF35F035C0E0FF459010001AEF7D
:020028000CF0DA
:10100000000051EC0DF01BD1000E2DEC0BF0446EE6
:1010100053EC0DF002D1240E4418D8A4F2D7010EDF
:1010200068D01E500D0FD96EDA6A44C0DFFF1E2A49
:10103000030E1E18D8A4E5D7470E0D18D8A40CD05F
:101040004F0E0E18D8A408D04F0E0F18D8A404D0F5
:10105000000E1F6E040E1ED0450E0D18D8A40CD025
:101060004E0E0E18D8A408D0440E0F18D8A404D0E1
:10107000010E1F6E000E0ED0530E0D18D8A40CD00A
:10108000500E0E18D8A408D0440E0F18D8A404D0BF
:10109000020EDFD71D6E2FD0410E0D18D8A40AD036
:1010A0004C0E0E18D8A406D0540E0F18D8A402D097
:1010B000030ECFD74D0E0D18D8A40AD0410E0E182E
:1010C000D8A406D04E0E0F18D8A402D0040E0DD00E
:1010D0004C0E0D18D8A40CD0450E0E18D8A408D06C
:1010E000440E0F18D8A404D0050E1F6E020ED2D7DE
:1010F000000E206E86D7020E206E000E1E6E000EB1
:101100001C6E7FD7010E426E2F0E446403D0390E41
:1011100044640ED0400E446403D0460E446408D0AC
:10112000600E446403D0660E446402D0000E426E2A
:101130004250D8B402D0010E01D0000E436E230EEF
:101140004418D8A402D0010E01D0000E416E4350C5
:10115000D8A403D04150D8B4CBD74350D8B415D07D
:101160001D501C18D8B4C4D7143A153AF00E1516F1
:1011700014500F0B1512F00E1416445077EC0CF0AF
:101180003F6E3F5014121C2A3CD71D501C18D8B477
:1011900021D03AD014C036F015C037F031EC0DF044
:1011A00033D021EC0DF030D014C036F015C037F03C
:1011B0003FEC0DF029D014C03DF015C03EF0E9EC35
:1011C0000CF022D01450DAEC0CF01ED0145067EC66
:1011D0000BF01AD01F503F6E406A4050000AD8A44E
:1011E00013D03F50000AD8B4D5D7010AD8B4D9D704
:1011F000030AD8B4D9D7010AD8B4DDD7070AD8B4BE
:10120000E1D7010AD8B4E2D7000E1C6E000E206EA2
:10121000000E156E000E146EF4D620503F6E406A1C
:101220004050000AD8A4EDD63F50000AD8B4F3D6F7
:10123000010AD8B4F6D6030AD8B464D7E2D6000EB1
:10124000A8EC0CF00009D8B4DFD653EC0DF0120076
:1012500028C024F029C025F058EC0CF024C02EF052
:1012600025C02FF02E500F0B2A6E2E3A2F3A0F0E5C
:101270002E162F50F00B2E120F0E2F162E500F0B76
:101280002B6E2E3A2F3A0F0E2E162F50F00B2E12D9
:101290000F0E2F162E500F0B2C6E2E3A2F3A0F0ECC
:1012A0002E162F50F00B2E120F0E2F162E500F0B46
:1012B0002D6E57EC0DF0010E246E240E9EEC0BF0FB
:1012C000010E246E410E9EEC0BF0010E246E4C0EAE
:1012D0009EEC0BF0010E246E540E9EEC0BF02D5084
:1012E0000DEC0DF0306E010E246E30509EEC0BF0C4
:1012F0002C500DEC0DF0306E010E246E30509EEC33
:101300000BF02B500DEC0DF0306E010E246E3050B2
:101310009EEC0BF02A500DEC0DF0306E010E246E99
:1013200030509EEC0BF0010E246E230E9EEC0BF061
:1013300055EC0DF059EC0DF0120028500F0B2A6EF1
:10134000283A293A0F0E28162950F00B28120F0EB2
:10135000291628500F0B2B6E283A293A0F0E281603
:101360002950F00B28120F0E291628500F0B2C6E47
:10137000283A293A0F0E28162950F00B28120F0E82
:10138000291628500F0B2D6E57EC0DF0010E246E10
:10139000240E9EEC0BF0010E246E440E9EEC0BF01E
:1013A000010E246E530E9EEC0BF0010E246E540EB3
:1013B0009EEC0BF02D500DEC0DF02E6E010E246EF8
:1013C0002E509EEC0BF02C500DEC0DF02E6E010EFD
:1013D000246E2E509EEC0BF02B500DEC0DF02E6E6B
:1013E000010E246E2E509EEC0BF02A500DEC0DF0E9
:1013F0002E6E010E246E2E509EEC0BF0010E246E0C
:10140000230E9EEC0BF055EC0DF059EC0DF0120094
:10141000F2940B0ED76EDE0ED66E16501A5C175075
:101420001B58D8A005D016501A5E17501B5A04D06E
:10143000000E1B6E000E1A6E222A2350D8B40DD057
:1014400023502218D8A409D018C028F019C029F0B8
:1014500028EC09F0000E226E2AD00150D8B406D034
:10146000040EF1EC0AF0000E016E21D00250D8B447
:1014700006D0050EF1EC0AF0000E026E18D00350F3
:10148000D8B406D0060EF1EC0AF0000E036E0FD0B1
:101490000450D8B406D0070EF1EC0AF0000E046E2A
:1014A00006D01AC028F01BC029F09DEC09F023508B
:1014B000D8A41200000E226E12000D0E246EFC0E37
:1014C000E82EFED7242EFCD781A802D0010E01D031
:1014D000000E256E81AA02D0010E01D0000E266EEC
:1014E00081AC02D0010E01D0000E276E81AE02D079
:1014F000010E01D0000E286E0550D8B408D025503A
:10150000D8A405D00950D8B402D0010E016E0650FF
:10151000D8B408D02650D8A405D00A50D8B402D0E8
:10152000010E026E0750D8B408D02750D8A405D0B9
:101530000B50D8B402D0010E036E0850D8B408D0B6
:101540002850D8A405D00C50D8B402D0010E046E97
:1015500025C009F026C00AF027C00BF028C00CF007
:10156000F2901200000E1B6E000E1A6E000E236E1B
:10157000000E216E000E196E000E186E000E226E07
:10158000000E176E000E166E000E206E000E1E6E00
:10159000000E156E000E146E000E1D6E000E1C6EF9
:1015A000000E0C6E0CC00BF00BC00AF00AC009F064
:1015B000000E086E08C007F007C006F006C005F070
:1015C000000E046E04C003F003C002F002C001F07C
:1015D000000E126E000E136E000E106E000E116ED5
:1015E00012002A6E2A500F0B286E2A3A0F0E2A1666
:1015F0002A500F0B296E57EC0DF0010E246E240EAD
:101600009EEC0BF0010E246E500E9EEC0BF0010EC2
:10161000246E520E9EEC0BF0010E246E530E9EECC7
:101620000BF029500DEC0DF02B6E010E246E2B509B
:101630009EEC0BF028500DEC0DF02B6E010E246E7D
:101640002B509EEC0BF0010E246E230E9EEC0BF043
:1016500055EC0DF059EC0DF012002A6E2A50A8EC52
:101660000CF00009D8B402D0FF0E12002A50D8A402
:101670000CD02A50100FD96EDA6ADF50276E286A14
:10168000000E2724D96E010E0BD02A50100FD96EF0
:10169000DA6ADF50276E286A000E2724D96E020E00
:1016A0002820DA6EDF50296E2A50100FD96EDA6AC0
:1016B000DF2A2A50100FD96EDA6ADE28D8A405D0A6
:1016C0002A50100FD96EDA6ADF6A29501200386E7C
:1016D0001DD089908A908B908C90000E056E000E24
:1016E000066E000E076E000E086E12008C80010E52
:1016F000056E12008B80010E066E12008A80010EAC
:10170000076E12008980010E086E12003850366E86
:10171000376A3750000AD8A412003650000AD8B4ED
:10172000D8D7010AD8B4E2D7030AD8B4E3D7010A5C
:10173000D8B4E4D7070AD8A41200E4D7276E2450FF
:10174000D8A40CD02450120FD96EDA6ADF50256E5F
:10175000266A000E2524D96E010E0BD02450120FDC
:10176000D96EDA6ADF50256E266A000E2524D96EFE
:10177000020E2620DA6E27C0DFFF2450120FD96E2A
:10178000DA6ADF2A2450120FD96EDA6ADE28D8A46A
:1017900012002450120FD96EDA6ADF6A1200000EAE
:1017A0003B6E000E3A6E38503910D8B41CD0010E82
:1017B0003C6E04D0D890383639363C2A39AEFAD748
:1017C000D8903A363B363850365C39503758D8A026
:1017D00005D03850365E3950375A3A80D890393271
:1017E00038323C2EEDD73AC036F03BC037F012000D
:1017F0000600E1CF31F0E2CF32F0D9CF33F0DACFCB
:1018000034F09EBA17EC0DF09EB8CAEC0CF0F2B4AE
:1018100008EC0AF0F2B05DEC0AF09EBCB9EC0CF0FA
:1018200034C0DAFF33C0D9FF32C0E2FF31C0E1FF7C
:101830004592110002EE00F010EEFFF0EE6AE55066
:10184000E150FCE1E250FAE101EE00F010EEFFF0B1
:10185000EE6AE550E150FCE1E250FAE100EE01F001
:10186000230EEE6AE806FDE145904592000195EFF2
:101870000CF0FE0E926EFE0E936EFE0E946EFE0E39
:10188000956E100E996E000E806E000E816E000E29
:10189000826E000E836E000E876E000E896E000E43
:1018A0008A6E000E8B6E000E8C6E000E906E120013
:1018B0002504D8B005D0230E256E280E246E120004
:1018C000020E255CD8B005D0270E256E100E246EB2
:1018D0001200030E255CD8B005D02A0E256EF80E36
:1018E000246E12002E0E256EE00E246E1200366E4F
:1018F0002F0E366406D03A0E366003D03650D00F25
:101900001200600E366406D0670E366003D0365083
:10191000A90F1200400E366406D0470E366003D081
:101920003650C90F1200FF0E1200B2EC0AF039EC6B
:101930000CF003EC0DF029EC0DF0F8EC0CF038ECA9
:101940000DF04FEC0DF001EC08F044EC0DF0FBD77E
:10195000266E2650100FD96EDA6A2650120FE16EED
:10196000E26ADE50E618D8A402D0010E1200000E82
:101970001200C4CF24F00F0E24162450C4CF25F03B
:10198000266A25C026F0256A2510186E2650196E85
:101990009E9C12009E98010EA8EC0CF00009D8B491
:1019A00004D0ACA2FED7AC9A1200010E2DEC0BF0C5
:1019B000AD6E1200366E3650D8B402D0010E01D092
:1019C000000E216E2150D8B402D0F2861200F29699
:1019D00012003DC036F03EC037F0000E396E640E86
:1019E000386ECFEC0BF03650236E000E226E1200D4
:1019F000310EC26E000EC16EAA0EC06E000EC46E15
:101A0000000EC36E1200AC987E96AC84150EAF6EBD
:101A1000AB8E9D889D8AAB881200246E0A0E2460CE
:101A200003D02450300F12002450370F1200AB9215
:101A3000AB94AB88000E246EAE509EEC0BF09E9AD9
:101A40001200000E1B6E000E1A6E4CEC0DF0FF0023
:101A50001200F28C9D8A9D889D8CF28653EC0DF0CD
:101A6000120036C01AF037C01BF049EC0DF012001E
:101A7000030ED56E0B0ED76EDE0ED66E120036C07C
:101A800016F037C017F012002350D8B41200C282EB
:101A90001200F28AD58E1200F29AD59E1200F28EB2
:101AA0001200F29E1200F28E1200F28E1200F29ECE
:061AB0001200AC8A1200D6
:020000040020DA
:08000000FFFFFFFFFFFFFFFF00
:020000040030CA
:0E000000FF06191EF38381FFFFC0FFE0FF40E3
:00000001FF
